:100000000C9470000C942C080C9405080C943D037F
:100010000C943D030C943D030C9498000C949800B0
:100020000C9498000C9498000C9498000C949800F0
:100030000C9498000C9498000C9498000C949800E0
:100040000C94BB070C9498000C9479080C945308FA
:100050000C9498000C9498000C9498000C949800C0
:100060000C94B7030C949800537563636573730025
:100070004E6F20676F6F64005365747570207261F6
:100080006E0000000000240027002A000000000885
:10009000000201000003040700000000000000004F
:1000A00000000000230026002900000000002500B9
:1000B00028002B00040404040404040402020202C5
:1000C000020203030303030301020408102040801B
:1000D000010204081020010204081020900D800A7B
:1000E00011241FBECFEFD8E0DEBFCDBF11E0A0E0EE
:1000F000B1E0E4EEFEE102C005900D92A83DB1072B
:10010000D9F724E0A8EDB1E001C01D92A138B207F3
:10011000E1F710E0CFE6D0E004C02197FE010E9495
:100120005A0FCE36D107C9F70E94A20A0C94650F68
:100130000C940000FC01918D228D892F90E0805C51
:100140009F4F821B91098F739927089580E090E05B
:10015000892B29F00E94420781110C940000089518
:1001600020911F04309120042817390771F49091D1
:100170001D0480911E04981741F0E0911D04F0E0E9
:10018000E753FD4F808190E008958FEF9FEF089532
:1001900008951F93CF93DF93DC015C968D919C9122
:1001A0005D97009739F421E030E013963C932E934D
:1001B00012973BC05196ED91FC91529750962C911D
:1001C0005097322F30951FB75E964C915E97742FE3
:1001D000727041FD6095F8944081772311F0422BB5
:1001E00001C043234083EC012197F1F748E050819F
:1001F00060FF02C0522B01C053235083EC012197B2
:10020000F1F76695415099F78081772319F08323A0
:10021000808302C0282B20831FBF5C968D919C9108
:100220005D970197F1F781E090E0DF91CF911F9109
:10023000089520911F04309120042817390771F484
:1002400080911E0420911D0490E0805C9F4F821BD2
:10025000910960E470E00E94F10E089580E090E062
:10026000089520911F043091200428173907B9F40C
:1002700090911D0480911E04981789F0E0911D044F
:10028000F0E0E753FD4F808120911D0430E02F5FA7
:100290003F4F2F73332720931D0490E008958FEF75
:1002A0009FEF089508950895E091100380910F0342
:1002B000E81730F4F0E0E755FD4F808190E00895B5
:1002C0008FEF9FEF08959091100380910F0398177F
:1002D00050F4E92FF0E0E755FD4F208130E09F5FBB
:1002E0009093100302C02FEF3FEFC9010895809152
:1002F0000F0390E020911003821B91090895089547
:1003000080E090E0089585ED8093BC008091BC0072
:1003100084FDFCCF10924F03089540918602262F52
:1003200030E0240F311D21323105DCF420914F03E0
:100330002430C9F4FC0180E090E0861758F4309135
:1003400086022191DC01AA59BD4FA30FB11D2C9348
:100350000196F3CF80918602680F6093860280E059
:10036000089581E0089582E00895CF92DF92EF92A0
:10037000FF920F931F93CF93DF937C01CB018A01F0
:1003800020915003222389F0EB016B01C40ED51E8E
:10039000CC15DD0569F06991D701ED91FC910190D3
:1003A000F081E02DC7010995F3CF642F0E948D01E4
:1003B000C801DF91CF911F910F91FF90EF90DF90D7
:1003C000CF900895CF93DF931F92CDB7DEB76983A7
:1003D000209150032223D1F020917303203240F06A
:1003E00021E030E0FC013383228380E090E015C0FF
:1003F00080915103E82FF0E0EE5AFC4F99819083F1
:100400008F5F809351038093730305C061E0CE0139
:1004100001960E948D0181E090E00F90DF91CF91D5
:10042000089508957F928F929F92AF92BF92CF923C
:10043000DF92EF92FF920F931F93CF93DF93EC0124
:100440005B01742E7C0182E0E80EF11CC7010E9462
:100450001901181619060CF09FC08E01095D1F4F77
:100460004E019FE2890E911CF80111928E169F0693
:10047000E1F7C7010E941901181619060CF480C093
:1004800040E090E020E030E060E177E2E8EEF3E089
:10049000D8018D918D018F3F49F1882339F18A3040
:1004A00009F452C08D3009F452C08D3209F485C070
:1004B000803309F482C0813309F481C0823309F4A6
:1004C00080C0833309F47FC0843309F47EC0853350
:1004D00009F47DC0863309F47CC0873309F47BC0FE
:1004E000883309F47AC0893309F479C0913021F452
:1004F000280F311D92E031C0923039F4BAE08B9F61
:10050000200D311D112493E028C0933039F494E676
:10051000899F200D311D112494E01FC0943049F4AF
:100520008E9FD0018F9FB00D11242A0F3B1F95E0A5
:1005300014C0953091F4869FD001879FB00D11248F
:100540002A0F3B1F96E009C090E041E006C044231B
:1005500069F291E040E020E030E08016910609F079
:1005600097CF911103C081E08FA716C08FA5882374
:1005700011F01FA611C02EA33DA388E690E00EC087
:10058000C7010E9419016C01C7010E943101FE01DF
:10059000EC0DFD1D87A36DCF80E790E00E9411094F
:1005A000A114B104F1F07720E1F0F8948DA19EA19F
:1005B000D5018D939C93789414C080E097CF81E00F
:1005C00095CF82E093CF83E091CF84E08FCF85E019
:1005D0008DCF86E08BCF87E089CF88E087CF89E019
:1005E00085CFDF91CF911F910F91FF90EF90DF901A
:1005F000CF90BF90AF909F908F907F900895CF93B2
:10060000DF93EC0188E591E00E94AB086AA17BA131
:1006100080E090E04AE00E94BD0883E691E0DF912F
:10062000CF910C94AB0886E691E00C94310987E7F2
:1006300091E00C943109FC01848DDF01A80FB11DFC
:10064000A35ABF4F2C91848D90E001968F73992708
:10065000848FA689B7892C93A089B1898C918370E6
:1006600080648C93938D848D981306C00288F389DF
:10067000E02D80818F7D808308951F920F920FB6A9
:100680000F9211242F933F934F935F936F937F9318
:100690008F939F93AF93BF93EF93FF93E0911F04CA
:1006A000F0912004309709F451C0968DA685B78546
:1006B000858591FF04C09C91892329F447C09C91B2
:1006C000892309F043C0A389B4899C9185898095C9
:1006D00089238C93868997890197F1F7608D718DB5
:1006E000A685B785558538E020E0CB010197F1F765
:1006F000822F90E095958795282F4C91452309F0FE
:100700002068315091F7868D81FD209580911E04DF
:1007100090E001968F73992730911D04381749F0A6
:10072000A0911E04B0E0A753BD4F2C9380931E04EC
:1007300003C0868D8160868F828D938D0197F1F73E
:10074000A389B4899C918589892B8C93FF91EF9122
:10075000BF91AF919F918F917F916F915F914F91D9
:100760003F912F910F900FBE0F901F9018951F92E1
:100770000F920FB60F9211242F933F934F935F93D5
:100780006F937F938F939F93AF93BF93EF93FF9359
:100790008091B900887F803609F49CC068F5883262
:1007A00009F45BC090F4803109F454C038F4882314
:1007B00009F4F6C0883009F44DC0F6C0883109F458
:1007C0004CC0803209F45DC0EFC0803409F468C0C9
:1007D00048F4803309F455C0883309F0E5C08093AC
:1007E0004D03D8C0803509F44FC0883509F45DC089
:1007F000883409F0D9C0D6C0883909F4C7C0A8F434
:10080000883709F467C038F4883609F463C0803744
:1008100009F460C0C9C0883809F4B8C0803909F447
:100820005FC0803809F0C0C05BC0803B09F486C05F
:1008300038F4803A09F466C0883A09F47FC0B4C03D
:10084000803C09F4A7C0883C09F4A4C0883B09F4A3
:100850008AC0AAC080912A0310C090914C03809155
:100860004B03981770F5E0914C0381E08E0F809355
:100870004C03F0E0E55DFC4F80818093BB0085EC8C
:1008800086C080934D038EC0E0914C0381E08E0FB3
:1008900080934C038091BB00F0E0E55DFC4F8083CA
:1008A00090914C0380914B036EC0E0914C0381E02A
:1008B0008E0F80934C038091BB00F0E0E55DFC4F10
:1008C000808380914E0381116DC081E08093290364
:1008D00084EA61C083E080934F031092A802CFCFD7
:1008E0008091A802803208F051C0E091A80281E016
:1008F0008E0F8093A8028091BB00F0E0E857FD4F77
:100900008083BDCF85EC8093BC0010924F03809113
:10091000A802803230F4E091A802F0E0E857FD4FE1
:1009200010826091A80270E0E0910B03F0910C033B
:1009300088E892E009951092A80236C084E080937E
:100940004F031092870210928602E0910D03F091FE
:100950000E03099580918602811105C081E0809384
:10096000860210926602E091870281E08E0F8093EA
:100970008702F0E0EA59FD4F80818093BB0090919F
:10098000870280918602981708F479CF85E88093D2
:10099000BC000AC085EC8093BC0010924F0304C0D9
:1009A00010924D030E948301FF91EF91BF91AF918F
:1009B0009F918F917F916F915F914F913F912F9177
:1009C0000F900FBE0F901F90189580910A038823F7
:1009D00061F09FB7F89420910A038091D8012130EB
:1009E00019F48DBB9FBF08958FBF08958EBD000081
:1009F0000DB407FEFDCF8EB5089520910A03222382
:100A000099F04FB7F89420910A03213059F42DB38F
:100A10002093D8013DB320910903209523232DBBBA
:100A20004FBF02C04093D8018CBD9DBD0895CF93A8
:100A3000C62FF89460E084E00E94D20980E591E03E
:100A40000E94FD048C2F8F770E94F60480E00E94A4
:100A5000F604C82F0E94E50461E084E00E94D209F8
:100A600078948C2FCF910895CF93DF93C62FD42FF6
:100A7000F89480E591E00E94FD0460E084E00E942B
:100A8000D2098C2F80680E94F604C82F8D2F0E94F7
:100A9000F60461E084E00E94D2090E94E5047894A3
:100AA0008C2FDF91CF910895209111033091120383
:100AB0002230310551F041E861E00E94340582E0C6
:100AC00090E0909312038093110308950F931F9366
:100AD000CF93DF9380916402909165020196909389
:100AE00065028093640262E180E090E00E94170555
:100AF00020911103309112032430310509F082C096
:100B000086FF93C063E180E090E00E941705D82F34
:100B100060E180E090E00E941705482F6DE080E0E2
:100B200090E00E943405F89480E591E00E94FD0475
:100B300060E084E00E94D20980E00E94F60404EEA6
:100B400011E0CD2FCC2341F080E00E94F604F801A3
:100B500081938F01C150F6CF61E084E00E94D209F9
:100B60000E94E5047894D093E3014FEF62E180E0C6
:100B700090E00E94340569E180E090E00E94170552
:100B800087FD8D5FC82FC595C595C093E2016AE1C9
:100B900080E090E00E94170590E0C7FF09C08C0F2D
:100BA000911DC7FD9A959093E1018093E0010DC0DE
:100BB00024E0880F991F2A95E1F76FE070E00E940A
:100BC000F10E7093E1016093E0018091E00190915A
:100BD000E1018D5991099093E1018093E001D330B7
:100BE00060F08091D9019091DA0101969093DA0139
:100BF0008093D90181E08093DF018091DF01882318
:100C0000E9F00EC02330310581F483FF0EC08091DE
:100C1000DD019091DE0101969093DE018093DD016C
:100C200080E090E00E94540509C08091DB01909122
:100C3000DC0101969093DC018093DB014FEF62E1D0
:100C400080E090E00E9434054FEF62E180E090E0A8
:100C5000DF91CF911F910F910C943405CF93DF93C7
:100C6000EC0181E08093500388E680937203109238
:100C70005103109273038BE390E00E949B0980E084
:100C80000E943F0980914F038111FCCF81E0809346
:100C90004F0380934E039FEF90934D0310924C03AC
:100CA0009DE090934B0380932A0380912A03806DEB
:100CB00080932A0380912903813061F410922903E3
:100CC00080912A038093BB008091BC0083FDF8CF04
:100CD00085EC01C085EE8093BC0080914F0381308C
:100CE000E1F380914C038E3018F490914C0301C0D5
:100CF0009EE0EBE2F3E0A9EAB2E080E0891721F0A0
:100D000021912D938F5FFACF1092100380930F03E0
:100D100081E194E00E9463018AA381E194E00E9452
:100D200063018BA381E194E00E9463018CA381E1C4
:100D300094E00E9463018DA381E194E00E9463012D
:100D40008EA381E194E00E9463018FA381E194E08E
:100D50000E9463019D8B8C8B81E194E00E94630172
:100D600088A781E194E00E94630189A781E194E072
:100D70000E9463018AA781E194E00E9463018BA72E
:100D800081E194E00E9463018CA781E194E00E94DC
:100D900063018DA7DF91CF9108950F931F93CF9398
:100DA000DF93EC018B010E942E06F894FE01B296AF
:100DB0008CE0D80101900D928A95E1F77894DF914B
:100DC000CF911F910F9108950895CF92DF92EF92E6
:100DD000FF920F931F93CF93DF936C017A018B01E6
:100DE000C0E0D0E0CE15DF0581F0D8016D918D0116
:100DF000D601ED91FC910190F081E02DC60109959D
:100E0000892B11F02196EECF7E01C701DF91CF91A2
:100E10001F910F91FF90EF90DF90CF900895FC010C
:100E2000538D448D252F30E0842F90E0821B930B4F
:100E3000541710F0CF96089501970895FC01918DF5
:100E4000828D981761F0828DDF01A80FB11D5D962C
:100E50008C91928D9F5F9F73928F90E008958FEF9A
:100E60009FEF0895FC01918D828D981731F0828D4E
:100E7000E80FF11D858D90E008958FEF9FEF0895A5
:100E80000E94600F84E793E00E949A0021E0892B82
:100E900009F420E0822F0895EF92FF920F931F93A1
:100EA000CF93DF93EC0181E0888F9B8D8C8D98131D
:100EB00005C0E889F989808185FD26C0F62E0B8D55
:100EC00010E00F5F1F4F0F731127E02E8C8DE8127B
:100ED0000CC00FB607FCFACFE889F989808185FF3D
:100EE000F5CFCE010E941B03F1CF8B8DFE01E80FE1
:100EF000F11DE35AFF4FF0829FB7F8940B8FEA89F8
:100F0000FB89808180620AC09FB7F894EE89FF89CF
:100F10006083E889F98980818370806480839FBFC2
:100F200081E090E0DF91CF911F910F91FF90EF90C2
:100F30000895CF93DF93EC01888D8823C9F0EA8967
:100F4000FB89808185FD05C0A889B9898C9186FDC2
:100F50000FC00FB607FCF5CF808185FFF2CFA889BF
:100F6000B9898C9185FFEDCFCE010E941B03E7CF9D
:100F7000DF91CF9108951F920F920FB60F92112417
:100F80002F933F938F939F93AF93BF9380912103B0
:100F900090912203A0912303B09124033091200368
:100FA00023E0230F2D3720F40196A11DB11D05C0AC
:100FB00026E8230F0296A11DB11D209320038093E4
:100FC000210390932203A0932303B09324038091E1
:100FD000250390912603A0912703B0912803019641
:100FE000A11DB11D8093250390932603A093270391
:100FF000B0932803BF91AF919F918F913F912F9113
:101000000F900FBE0F901F9018951F920F920FB662
:101010000F9211242F933F934F935F936F937F937E
:101020008F939F93AF93BF93EF93FF93E091020150
:10103000F09103010995FF91EF91BF91AF919F91BD
:101040008F917F916F915F914F913F912F910F9071
:101050000FBE0F901F9018951F920F920FB60F9210
:1010600011242F933F934F935F936F937F938F93AD
:101070009F93AF93BF93EF93FF93E0910001F091A3
:1010800001010995FF91EF91BF91AF919F918F91D0
:101090007F916F915F914F913F912F910F900FBE74
:1010A0000F901F9018951F920F920FB60F92112458
:1010B0002F933F934F935F936F937F938F939F9360
:1010C000AF93BF93EF93FF9384E793E00E941B03DA
:1010D000FF91EF91BF91AF919F918F917F916F9110
:1010E0005F914F913F912F910F900FBE0F901F90E6
:1010F00018951F920F920FB60F9211242F938F9372
:101100009F93EF93FF93E0918403F0918503808197
:10111000E0918A03F0918B0382FD12C0908180914F
:101120008D038F5F8F7320918E03821751F0E091B2
:101130008D03F0E0EC58FC4F958F80938D0301C038
:101140008081FF91EF919F918F912F910F900FBE12
:101150000F901F901895009769F0FC0101900020F6
:10116000E9F73197AF01481B590BBC0184E793E0C5
:101170000C94E50680E090E008958F929F92AF92E4
:10118000BF920F931F93CF93DF93CDB7DEB7A19795
:101190000FB6F894DEBF0FBECDBF19A2423008F4DF
:1011A0004AE08E010F5D1F4F842E912CA12CB12C93
:1011B000A50194010E94050FE62FB901CA01015053
:1011C0001109EA3014F4E05D01C0E95CD801EC9348
:1011D000232B242B252B61F7C8010E94AB08A19675
:1011E0000FB6F894DEBF0FBECDBFDF91CF911F9138
:1011F0000F91BF90AF909F908F900895CF93DF9302
:10120000682F70E080E090E04AE00E94BD08EC01A9
:1012100083E691E00E94AB088C0F9D1FDF91CF9178
:1012200008950F931F93CF93DF938C01C0E0D0E01C
:10123000F801EC0FFD1F6491662341F084E793E011
:101240000E944C07892B11F02196F2CF83E691E0A2
:101250000E94AB088C0F9D1FDF91CF911F910F91C2
:101260000895CF93DF930E94AB08EC0183E691E0F1
:101270000E94AB088C0F9D1FDF91CF910895282FFE
:1012800030917303313208F04AC080914F038111CD
:10129000FCCF9091720342E040934F0320934E03A2
:1012A0002FEF20934D0310924C0330934B03E2E554
:1012B000F3E0ABE2B3E020E0321721F041914D932F
:1012C0002F5FFACF10922A0320912A03990F922BB5
:1012D00090932A0390912903913061F4109229038D
:1012E00090912A039093BB009091BC0093FDF8CF9E
:1012F00095EC01C095EE9093BC0090914F03923015
:10130000E1F390914D039F3F79F080914D0380323E
:1013100041F080914D03803331F084E005C081E0DD
:1013200003C082E001C083E0109251031092730366
:10133000109250030895682F81E194E00C94E2012B
:10134000CF92DF92EF92FF92CF93DF936C01990FD0
:10135000EE08FF08F7FE13C06DE284E793E00E94F9
:101360004C07EC0166277727CB016C197D098E09A4
:101370009F094AE00E94BD08C80FD91F06C04AE075
:10138000C701B6010E94BD08EC0183E691E00E940E
:10139000AB088C0F9D1FDF91CF91FF90EF90DF90F6
:1013A000CF90089590E0FC01E457FF4F2491FC0199
:1013B000E853FF4F3491FC01EC54FF4FE491EE23CE
:1013C00009F43CC0222339F1233091F038F4213064
:1013D000A9F0223001F584B58F7D12C0273091F03D
:1013E0002830A1F02430B9F4809180008F7D03C0B3
:1013F000809180008F77809380000DC084B58F77B7
:1014000084BD09C08091B0008F7703C08091B00087
:101410008F7D8093B000F0E0EE0FFF1FE655FF4F89
:10142000A591B4919FB7F894611104C08C91309547
:10143000382302C0EC913E2B3C939FBF0895CF937D
:10144000DF9390E0FC01E853FF4F2491FC01EC5442
:10145000FF4F8491882361F190E0880F991FFC0170
:10146000EE57FF4FC591D491FC01E655FF4FA59172
:10147000B491611109C09FB7F894888120958223A7
:101480008883EC912E230BC0623061F49FB7F894EF
:101490008881322F309583238883EC912E2B2C93D7
:1014A0009FBF06C08FB7F894E8812E2B28838FBF8B
:1014B000DF91CF9108953FB7F894809125039091E3
:1014C0002603A0912703B091280326B5A89B05C049
:1014D0002F3F19F00196A11DB11D3FBFBA2FA92FB3
:1014E000982F8827820F911DA11DB11DBC01CD0130
:1014F00042E0660F771F881F991F4A95D1F708951C
:101500008EE391E09093500480934F048CE291E03D
:10151000909352048093510480911F049091200471
:101520008155944071F4E0916404F09165049081D8
:101530008091660480958923808310922004109204
:101540001F040895789484B5826084BD84B5816059
:1015500084BD85B5826085BD85B5816085BD80917E
:101560006E00816080936E001092810080918100F6
:1015700082608093810080918100816080938100EE
:10158000809180008160809380008091B1008460B0
:101590008093B1008091B00081608093B000809111
:1015A0007A00846080937A0080917A0082608093D0
:1015B0007A0080917A00816080937A0080917A002D
:1015C000806880937A001092C100E0918403F091CA
:1015D000850382E08083E0918003F0918103108293
:1015E000E0918203F09183038FEC808310928C034F
:1015F000E0918803F091890386E08083E09186037F
:10160000F0918703808180618083E0918603F0916F
:101610008703808188608083E0918603F09187034F
:10162000808180688083E0918603F09187038081C8
:101630008F7D8083CFB7F89480911303811127C0E9
:10164000EEEBF0E08491E2EDF0E09491E82FF0E031
:10165000EE0FFF1FEE57FF4FA591B491EC91E923D8
:1016600021F461E08AE00E94D20961E08AE00E94F0
:101670001F0A8CB580618CBD8CB580648CBD61E027
:101680008DE00E941F0A61E08BE00E941F0A80919A
:1016900013038F5F80931303CFBF61E084E00E9448
:1016A0001F0A60E083E00E941F0A86E695E090939F
:1016B000030180930201809169008C60809369002E
:1016C000E99A8FB7F89492E090930A038FBF8091C4
:1016D000110390911203019761F040E861E08FE7F8
:1016E00094E00E94340581E090E09093120380938F
:1016F000110388E891E00E94AB088091110390915A
:1017000012030E94A0098FE794E00E9454058BE920
:1017100091E00E94AB0880911103909112030E9406
:10172000A00940E06EE08FE794E00E9434054FE7A7
:101730006FE08FE794E00E94340544EE66E08FE7A7
:1017400094E00E94340540EC67E08FE794E00E944B
:10175000340540E068E08FE794E00E94340566E0DD
:101760008FE794E00E9417050E94FE084CE869E0AC
:101770008FE794E00E94340547E06DE48FE794E042
:101780000E94340569E08FE794E00E941705682FF6
:1017900070E080E090E04AE00E94BD0889EA91E0B4
:1017A0000E94AB086DE48FE794E00E9417050E9449
:1017B000FE084FEF62E18FE794E00E9434054FEF9F
:1017C00062E18FE794E00E943405809111039091CB
:1017D00012030E94A0091092100310920F0310929E
:1017E00051031092730310924F03C1E0C0934E0354
:1017F0001092290361E082E10E94D20961E083E155
:101800000E94D2098091B9008E7F8093B9008091A7
:10181000B9008D7F8093B90088E48093B80085E497
:101820008093BC0082E591E090930E0380930D03BA
:1018300083E591E090930C0380930B03C0935003D6
:10184000D8E6D093720310925103109273038BE683
:1018500090E00E949B0980E090E00E949B0981E05B
:101860000E943F09C0935003D0937203109251031A
:10187000109273038BE190E00E949B0988E090E056
:101880000E949B0981E00E943F09C0935003D093BE
:10189000720310925103109273038CE190E00E9446
:1018A0009B0988E190E00E949B0981E00E943F092A
:1018B0008CEA91E00E943109C0E0D0E00DE710E031
:1018C000CE01B8010E94F10E892B21F48CEC91E03D
:1018D0000E94AB0881E294E00E942E0680912304CE
:1018E00090912404092E000CAA0BBB0B40913704E5
:1018F000509138046091390470913A04840F951F17
:10190000A61FB71F8093370490933804A09339041F
:10191000B0933A048091250490912604092E000C7E
:10192000AA0BBB0B40913B0450913C0460913D04D9
:1019300070913E04840F951FA61FB71F80933B0430
:1019400090933C04A0933D04B0933E0480912704FF
:1019500090912804092E000CAA0BBB0B40913F0468
:10196000509140046091410470914204840F951F8E
:10197000A61FB71F80933F0490934004A093410497
:10198000B09342040E945B0A4B015C0143E0C42E09
:10199000D12CE12CF12C0E945B0ADC01CB018819CF
:1019A0009909AA09BB09883E9340A105B10598F39E
:1019B00021E0C21AD108E108F10888EE880E83E020
:1019C000981EA11CB11CC114D104E104F10419F743
:1019D0002196C03DF7E0DF0709F072CF6091370430
:1019E000709138048091390490913A0420EDC22E10
:1019F00027E0D22EE12CF12CA70196010E94270F9F
:101A000020933704309338044093390450933A04B8
:101A100060913B0470913C0480913D0490913E04A0
:101A2000A70196010E94270F20933B0430933C04AA
:101A300040933D0450933E0460913F0470914004F4
:101A40008091410490914204A70196010E94270FC2
:101A500020933F0430934004409341045093420448
:101A60008EEC91E00E94310988E790E00E94110914
:101A700033E0E32EF12C4CE064E173E081E294E08A
:101A80000E94CD068091110390911203029709F0F4
:101A900044C040E06DE08FE794E00E943405F89484
:101AA00080E591E00E94FD0460E084E00E94D2099C
:101AB00080E80E94F60404E113E0CDE0C15031F06B
:101AC000F80181918F010E94F604F8CF61E084E073
:101AD0000E94D2090E94E50478944CE062E28FE70C
:101AE00094E00E94340580911103909112030397B2
:101AF00081F043E061E08FE794E00E94340540E428
:101B000060E48FE794E00E943405F0921203E092C3
:101B10001103809114030E94FE080E94A600ABCF1F
:101B2000109277031092760388EE93E0A0E0B0E085
:101B30008093780390937903A0937A03B0937B0307
:101B400028E031E0309375032093740325EC30E0F6
:101B5000309381032093800324EC30E0309383039F
:101B60002093820320EC30E030938503209384039C
:101B700021EC30E0309387032093860322EC30E0A1
:101B8000309389032093880326EC30E030938B0355
:101B900020938A0310928D0310928E0310928F036C
:101BA0001092900310921404109213048093150461
:101BB00090931604A0931704B09318042AE131E01F
:101BC000309312042093110428E431E03093800410
:101BD00020937F042EE331E03093500420934F0490
:101BE0001092540410925304809355049093560419
:101BF000A0935704B09358048CE291E09093520460
:101C000080935104109268041092670410926A0441
:101C10001092690410926C0410926B0410926E047E
:101C200010926D0460916F046E7F6D7F60936F04FE
:101C30006695617081E068278AE00E94D20961E0C0
:101C40008AE00E941F0AE2EDF0E0E491E093610473
:101C5000EEEBF0E0E491F0E0EE0FFF1FE655FF4FF2
:101C600085919491909363048093620460E087E08F
:101C70000E941F0A80916F0481FD04C061E087E02B
:101C80000E94D20987E080935D04EFECF0E0E491DC
:101C9000E0935E04EBEBF0E0E491F0E0EE0FFF1F69
:101CA000E056FF4F859194919093600480935F0478
:101CB00010927004109272041092710410927304C6
:101CC00088E0E6E7F4E0DF011D928A95E9F71092DB
:101CD0007E048DE991E090936E0480936D048DEB0A
:101CE00090E090936804809367048BE991E090936F
:101CF0006A04809369048CE291E090936C04809371
:101D00006B048091680084608093680090915D040A
:101D1000983038F09E3040F0963148F020E030E0C6
:101D200008C02DE630E005C02BE630E002C02CE60E
:101D300030E03093650420936404983030F481E0FF
:101D400001C0880F9A95EAF70EC0292F30E09E3027
:101D500018F42850310902C02E50310981E001C029
:101D6000880F2A95EAF78093660480916D0490911C
:101D70006E040197F1F780916B0490916C04892BAC
:101D800049F1E0911F04F0912004B4E0E135FB0734
:101D900009F1309739F0A389B4899C9185898095A0
:101DA00089238C9380916F048E7F80936F041092AF
:101DB0001E0410921D0481E594E09093200480930A
:101DC0001F04E0916404F0916504908180916604A1
:101DD000892B808382E591E09093220480932104F3
:101DE000089597FB072E16F4009407D077FD09D0CD
:101DF0000E94460F07FC05D03EF4909581959F4FB9
:101E00000895709561957F4F0895A1E21A2EAA1B3F
:101E1000BB1BFD010DC0AA1FBB1FEE1FFF1FA2179A
:101E2000B307E407F50720F0A21BB30BE40BF50B97
:101E3000661F771F881F991F1A9469F76095709520
:101E4000809590959B01AC01BD01CF010895052EB1
:101E500097FB1EF400940E943E0F57FD07D00E948E
:101E6000050F07FC03D04EF40C943E0F509540959F
:101E7000309521953F4F4F4F5F4F08959095809536
:101E8000709561957F4F8F4F9F4F0895AA1BBB1B85
:101E900051E107C0AA1FBB1FA617B70710F0A61B6A
:101EA000B70B881F991F5A95A9F780959095BC018B
:101EB000CD010895EE0FFF1F0590F491E02D0994D8
:101EC00081E090E0F8940C94650F10E0CFE6D0E04C
:101ED00004C0FE010E945A0F2196C037D107C9F7EE
:041EE000F894FFCFA4
:101EE400E406E406000000004C07E5060F07990726
:101EF4009A001E07320700000000E201B5018001CC
:101F0400C80077016301540100000000C900E50620
:101F14008001C80019013101B00000000000FF0277
:101F2400110212020000000013031102110200004A
:101F3400000017031102CD0652656164696E677370
:101F44003A20000D0A004C6F5261436F6D6D733A75
:101F54003A6465627567004779726F416363656CC3
:101F64003A3A646562756700526164696F20697307
:101F740020696E206D6F64653A20004E6F7720698A
:101F84006E206D6F64653A20002C20004779726FD3
:101F94002063616C6962726174696E672C20646F7E
:101FA4006E2774206D6F7665206974002E0073743B
:081FB400617274696E670000A0
:00000001FF
